{
  "_format": "hh-sol-artifact-1",
  "contractName": "GiftlyProtocol",
  "sourceName": "contracts/Giftly.sol",
  "abi": [
    {
      "inputs": [
        {
          "internalType": "uint256",
          "name": "tokenSupply",
          "type": "uint256"
        }
      ],
      "stateMutability": "nonpayable",
      "type": "constructor"
    },
    {
      "anonymous": false,
      "inputs": [
        {
          "indexed": true,
          "internalType": "address",
          "name": "owner",
          "type": "address"
        },
        {
          "indexed": true,
          "internalType": "address",
          "name": "approved",
          "type": "address"
        },
        {
          "indexed": true,
          "internalType": "uint256",
          "name": "tokenId",
          "type": "uint256"
        }
      ],
      "name": "Approval",
      "type": "event"
    },
    {
      "anonymous": false,
      "inputs": [
        {
          "indexed": true,
          "internalType": "address",
          "name": "owner",
          "type": "address"
        },
        {
          "indexed": true,
          "internalType": "address",
          "name": "operator",
          "type": "address"
        },
        {
          "indexed": false,
          "internalType": "bool",
          "name": "approved",
          "type": "bool"
        }
      ],
      "name": "ApprovalForAll",
      "type": "event"
    },
    {
      "anonymous": false,
      "inputs": [
        {
          "indexed": false,
          "internalType": "uint256",
          "name": "_tokenId",
          "type": "uint256"
        }
      ],
      "name": "Claim",
      "type": "event"
    },
    {
      "anonymous": false,
      "inputs": [
        {
          "indexed": false,
          "internalType": "uint256",
          "name": "_tokenId",
          "type": "uint256"
        }
      ],
      "name": "ClaimERC20",
      "type": "event"
    },
    {
      "anonymous": false,
      "inputs": [
        {
          "indexed": false,
          "internalType": "uint256",
          "name": "_tokenId",
          "type": "uint256"
        },
        {
          "indexed": false,
          "internalType": "uint256",
          "name": "_amount",
          "type": "uint256"
        }
      ],
      "name": "ClaimERC20Partial",
      "type": "event"
    },
    {
      "anonymous": false,
      "inputs": [
        {
          "indexed": false,
          "internalType": "uint256",
          "name": "_tokenId",
          "type": "uint256"
        },
        {
          "indexed": false,
          "internalType": "uint256",
          "name": "_amount",
          "type": "uint256"
        }
      ],
      "name": "ClaimPartial",
      "type": "event"
    },
    {
      "anonymous": false,
      "inputs": [
        {
          "indexed": false,
          "internalType": "address",
          "name": "_recipient",
          "type": "address"
        },
        {
          "indexed": false,
          "internalType": "string",
          "name": "_tokenURI",
          "type": "string"
        }
      ],
      "name": "Gift",
      "type": "event"
    },
    {
      "anonymous": false,
      "inputs": [
        {
          "indexed": false,
          "internalType": "address",
          "name": "_tokenAddress",
          "type": "address"
        },
        {
          "indexed": false,
          "internalType": "address",
          "name": "_recipient",
          "type": "address"
        },
        {
          "indexed": false,
          "internalType": "string",
          "name": "_tokenURI",
          "type": "string"
        }
      ],
      "name": "GiftERC20",
      "type": "event"
    },
    {
      "anonymous": false,
      "inputs": [
        {
          "indexed": true,
          "internalType": "address",
          "name": "previousOwner",
          "type": "address"
        },
        {
          "indexed": true,
          "internalType": "address",
          "name": "newOwner",
          "type": "address"
        }
      ],
      "name": "OwnershipTransferred",
      "type": "event"
    },
    {
      "anonymous": false,
      "inputs": [
        {
          "indexed": true,
          "internalType": "address",
          "name": "from",
          "type": "address"
        },
        {
          "indexed": true,
          "internalType": "address",
          "name": "to",
          "type": "address"
        },
        {
          "indexed": true,
          "internalType": "uint256",
          "name": "tokenId",
          "type": "uint256"
        }
      ],
      "name": "Transfer",
      "type": "event"
    },
    {
      "inputs": [],
      "name": "FEE_PERCENTAGE",
      "outputs": [
        {
          "internalType": "uint256",
          "name": "",
          "type": "uint256"
        }
      ],
      "stateMutability": "view",
      "type": "function"
    },
    {
      "inputs": [],
      "name": "MAX_TOTAL_SUPPLY",
      "outputs": [
        {
          "internalType": "uint256",
          "name": "",
          "type": "uint256"
        }
      ],
      "stateMutability": "view",
      "type": "function"
    },
    {
      "inputs": [
        {
          "internalType": "address",
          "name": "to",
          "type": "address"
        },
        {
          "internalType": "uint256",
          "name": "tokenId",
          "type": "uint256"
        }
      ],
      "name": "approve",
      "outputs": [],
      "stateMutability": "nonpayable",
      "type": "function"
    },
    {
      "inputs": [
        {
          "internalType": "address",
          "name": "owner",
          "type": "address"
        }
      ],
      "name": "balanceOf",
      "outputs": [
        {
          "internalType": "uint256",
          "name": "",
          "type": "uint256"
        }
      ],
      "stateMutability": "view",
      "type": "function"
    },
    {
      "inputs": [
        {
          "internalType": "uint256",
          "name": "_tokenId",
          "type": "uint256"
        }
      ],
      "name": "claim",
      "outputs": [],
      "stateMutability": "payable",
      "type": "function"
    },
    {
      "inputs": [
        {
          "internalType": "uint256",
          "name": "_tokenId",
          "type": "uint256"
        }
      ],
      "name": "claimAs",
      "outputs": [],
      "stateMutability": "payable",
      "type": "function"
    },
    {
      "inputs": [
        {
          "internalType": "uint256",
          "name": "_tokenId",
          "type": "uint256"
        }
      ],
      "name": "claimERC20",
      "outputs": [],
      "stateMutability": "payable",
      "type": "function"
    },
    {
      "inputs": [
        {
          "internalType": "uint256",
          "name": "_tokenId",
          "type": "uint256"
        },
        {
          "internalType": "uint256",
          "name": "_amount",
          "type": "uint256"
        }
      ],
      "name": "claimERC20Partial",
      "outputs": [],
      "stateMutability": "payable",
      "type": "function"
    },
    {
      "inputs": [
        {
          "internalType": "uint256",
          "name": "_tokenId",
          "type": "uint256"
        },
        {
          "internalType": "uint256",
          "name": "_amount",
          "type": "uint256"
        }
      ],
      "name": "claimPartial",
      "outputs": [],
      "stateMutability": "payable",
      "type": "function"
    },
    {
      "inputs": [],
      "name": "contractURI",
      "outputs": [
        {
          "internalType": "string",
          "name": "",
          "type": "string"
        }
      ],
      "stateMutability": "view",
      "type": "function"
    },
    {
      "inputs": [
        {
          "internalType": "uint256",
          "name": "tokenId",
          "type": "uint256"
        }
      ],
      "name": "getApproved",
      "outputs": [
        {
          "internalType": "address",
          "name": "",
          "type": "address"
        }
      ],
      "stateMutability": "view",
      "type": "function"
    },
    {
      "inputs": [],
      "name": "getLastTokenId",
      "outputs": [
        {
          "internalType": "uint256",
          "name": "",
          "type": "uint256"
        }
      ],
      "stateMutability": "view",
      "type": "function"
    },
    {
      "inputs": [
        {
          "internalType": "address",
          "name": "_recipient",
          "type": "address"
        },
        {
          "internalType": "string",
          "name": "_tokenURI",
          "type": "string"
        },
        {
          "internalType": "uint256",
          "name": "_amount",
          "type": "uint256"
        }
      ],
      "name": "gift",
      "outputs": [],
      "stateMutability": "payable",
      "type": "function"
    },
    {
      "inputs": [
        {
          "internalType": "address[]",
          "name": "_recipients",
          "type": "address[]"
        },
        {
          "internalType": "string[]",
          "name": "_tokenURIs",
          "type": "string[]"
        },
        {
          "internalType": "uint256[]",
          "name": "_amounts",
          "type": "uint256[]"
        }
      ],
      "name": "giftBatch",
      "outputs": [],
      "stateMutability": "payable",
      "type": "function"
    },
    {
      "inputs": [
        {
          "internalType": "address",
          "name": "_tokenAddress",
          "type": "address"
        },
        {
          "internalType": "address",
          "name": "_recipient",
          "type": "address"
        },
        {
          "internalType": "string",
          "name": "_tokenURI",
          "type": "string"
        },
        {
          "internalType": "uint256",
          "name": "_amount",
          "type": "uint256"
        }
      ],
      "name": "giftERC20",
      "outputs": [],
      "stateMutability": "nonpayable",
      "type": "function"
    },
    {
      "inputs": [
        {
          "internalType": "address[]",
          "name": "_tokenAddresses",
          "type": "address[]"
        },
        {
          "internalType": "address[]",
          "name": "_recipients",
          "type": "address[]"
        },
        {
          "internalType": "string[]",
          "name": "_tokenURIs",
          "type": "string[]"
        },
        {
          "internalType": "uint256[]",
          "name": "_amounts",
          "type": "uint256[]"
        }
      ],
      "name": "giftERC20Batch",
      "outputs": [],
      "stateMutability": "nonpayable",
      "type": "function"
    },
    {
      "inputs": [
        {
          "internalType": "address",
          "name": "owner",
          "type": "address"
        },
        {
          "internalType": "address",
          "name": "operator",
          "type": "address"
        }
      ],
      "name": "isApprovedForAll",
      "outputs": [
        {
          "internalType": "bool",
          "name": "",
          "type": "bool"
        }
      ],
      "stateMutability": "view",
      "type": "function"
    },
    {
      "inputs": [
        {
          "internalType": "uint256",
          "name": "_tokenId",
          "type": "uint256"
        }
      ],
      "name": "isGiftCardERC20",
      "outputs": [
        {
          "internalType": "bool",
          "name": "",
          "type": "bool"
        }
      ],
      "stateMutability": "view",
      "type": "function"
    },
    {
      "inputs": [],
      "name": "name",
      "outputs": [
        {
          "internalType": "string",
          "name": "",
          "type": "string"
        }
      ],
      "stateMutability": "view",
      "type": "function"
    },
    {
      "inputs": [],
      "name": "owner",
      "outputs": [
        {
          "internalType": "address",
          "name": "",
          "type": "address"
        }
      ],
      "stateMutability": "view",
      "type": "function"
    },
    {
      "inputs": [
        {
          "internalType": "uint256",
          "name": "tokenId",
          "type": "uint256"
        }
      ],
      "name": "ownerOf",
      "outputs": [
        {
          "internalType": "address",
          "name": "",
          "type": "address"
        }
      ],
      "stateMutability": "view",
      "type": "function"
    },
    {
      "inputs": [],
      "name": "renounceOwnership",
      "outputs": [],
      "stateMutability": "nonpayable",
      "type": "function"
    },
    {
      "inputs": [
        {
          "internalType": "address",
          "name": "from",
          "type": "address"
        },
        {
          "internalType": "address",
          "name": "to",
          "type": "address"
        },
        {
          "internalType": "uint256",
          "name": "tokenId",
          "type": "uint256"
        }
      ],
      "name": "safeTransferFrom",
      "outputs": [],
      "stateMutability": "nonpayable",
      "type": "function"
    },
    {
      "inputs": [
        {
          "internalType": "address",
          "name": "from",
          "type": "address"
        },
        {
          "internalType": "address",
          "name": "to",
          "type": "address"
        },
        {
          "internalType": "uint256",
          "name": "tokenId",
          "type": "uint256"
        },
        {
          "internalType": "bytes",
          "name": "data",
          "type": "bytes"
        }
      ],
      "name": "safeTransferFrom",
      "outputs": [],
      "stateMutability": "nonpayable",
      "type": "function"
    },
    {
      "inputs": [
        {
          "internalType": "address",
          "name": "operator",
          "type": "address"
        },
        {
          "internalType": "bool",
          "name": "approved",
          "type": "bool"
        }
      ],
      "name": "setApprovalForAll",
      "outputs": [],
      "stateMutability": "nonpayable",
      "type": "function"
    },
    {
      "inputs": [
        {
          "internalType": "uint256",
          "name": "_tokenId",
          "type": "uint256"
        },
        {
          "internalType": "address",
          "name": "_claimer",
          "type": "address"
        }
      ],
      "name": "setClaimer",
      "outputs": [],
      "stateMutability": "nonpayable",
      "type": "function"
    },
    {
      "inputs": [
        {
          "internalType": "string",
          "name": "_collectionURI",
          "type": "string"
        }
      ],
      "name": "setCollectionURI",
      "outputs": [],
      "stateMutability": "nonpayable",
      "type": "function"
    },
    {
      "inputs": [
        {
          "internalType": "bytes4",
          "name": "interfaceId",
          "type": "bytes4"
        }
      ],
      "name": "supportsInterface",
      "outputs": [
        {
          "internalType": "bool",
          "name": "",
          "type": "bool"
        }
      ],
      "stateMutability": "view",
      "type": "function"
    },
    {
      "inputs": [],
      "name": "symbol",
      "outputs": [
        {
          "internalType": "string",
          "name": "",
          "type": "string"
        }
      ],
      "stateMutability": "view",
      "type": "function"
    },
    {
      "inputs": [
        {
          "internalType": "uint256",
          "name": "",
          "type": "uint256"
        }
      ],
      "name": "tokenIdToBalance",
      "outputs": [
        {
          "internalType": "uint256",
          "name": "",
          "type": "uint256"
        }
      ],
      "stateMutability": "view",
      "type": "function"
    },
    {
      "inputs": [
        {
          "internalType": "uint256",
          "name": "",
          "type": "uint256"
        },
        {
          "internalType": "address",
          "name": "",
          "type": "address"
        }
      ],
      "name": "tokenIdToClaimers",
      "outputs": [
        {
          "internalType": "bool",
          "name": "",
          "type": "bool"
        }
      ],
      "stateMutability": "view",
      "type": "function"
    },
    {
      "inputs": [
        {
          "internalType": "uint256",
          "name": "",
          "type": "uint256"
        }
      ],
      "name": "tokenIdToTokenAddress",
      "outputs": [
        {
          "internalType": "address",
          "name": "",
          "type": "address"
        }
      ],
      "stateMutability": "view",
      "type": "function"
    },
    {
      "inputs": [
        {
          "internalType": "uint256",
          "name": "",
          "type": "uint256"
        }
      ],
      "name": "tokenIdToURI",
      "outputs": [
        {
          "internalType": "string",
          "name": "",
          "type": "string"
        }
      ],
      "stateMutability": "view",
      "type": "function"
    },
    {
      "inputs": [
        {
          "internalType": "uint256",
          "name": "_tokenId",
          "type": "uint256"
        }
      ],
      "name": "tokenURI",
      "outputs": [
        {
          "internalType": "string",
          "name": "",
          "type": "string"
        }
      ],
      "stateMutability": "view",
      "type": "function"
    },
    {
      "inputs": [
        {
          "internalType": "address",
          "name": "from",
          "type": "address"
        },
        {
          "internalType": "address",
          "name": "to",
          "type": "address"
        },
        {
          "internalType": "uint256",
          "name": "tokenId",
          "type": "uint256"
        }
      ],
      "name": "transferFrom",
      "outputs": [],
      "stateMutability": "nonpayable",
      "type": "function"
    },
    {
      "inputs": [
        {
          "internalType": "address",
          "name": "newOwner",
          "type": "address"
        }
      ],
      "name": "transferOwnership",
      "outputs": [],
      "stateMutability": "nonpayable",
      "type": "function"
    },
    {
      "inputs": [],
      "name": "withdraw",
      "outputs": [],
      "stateMutability": "nonpayable",
      "type": "function"
    },
    {
      "inputs": [
        {
          "internalType": "contract IERC20",
          "name": "token",
          "type": "address"
        }
      ],
      "name": "withdrawTokens",
      "outputs": [],
      "stateMutability": "nonpayable",
      "type": "function"
    },
    {
      "stateMutability": "payable",
      "type": "receive"
    }
  ],
  "bytecode": "0x60806040523480156200001157600080fd5b50604051620051a1380380620051a18339818101604052810190620000379190620002a2565b6040518060400160405280601481526020017f476966746c79204e4654204769667420436172640000000000000000000000008152506040518060400160405280600481526020017f47494654000000000000000000000000000000000000000000000000000000008152508160009080519060200190620000bb929190620001db565b508060019080519060200190620000d4929190620001db565b505050620000f7620000eb6200010d60201b60201c565b6200011560201b60201c565b600160078190555080600a819055505062000357565b600033905090565b6000600660009054906101000a900473ffffffffffffffffffffffffffffffffffffffff16905081600660006101000a81548173ffffffffffffffffffffffffffffffffffffffff021916908373ffffffffffffffffffffffffffffffffffffffff1602179055508173ffffffffffffffffffffffffffffffffffffffff168173ffffffffffffffffffffffffffffffffffffffff167f8be0079c531659141344cd1fd0a4f28419497f9722a3daafe3b4186f6b6457e060405160405180910390a35050565b828054620001e990620002d8565b90600052602060002090601f0160209004810192826200020d576000855562000259565b82601f106200022857805160ff191683800117855562000259565b8280016001018555821562000259579182015b82811115620002585782518255916020019190600101906200023b565b5b5090506200026891906200026c565b5090565b5b80821115620002875760008160009055506001016200026d565b5090565b6000815190506200029c816200033d565b92915050565b600060208284031215620002b557600080fd5b6000620002c5848285016200028b565b91505092915050565b6000819050919050565b60006002820490506001821680620002f157607f821691505b602082108114156200030857620003076200030e565b5b50919050565b7f4e487b7100000000000000000000000000000000000000000000000000000000600052602260045260246000fd5b6200034881620002ce565b81146200035457600080fd5b50565b614e3a80620003676000396000f3fe6080604052600436106102285760003560e01c806349df728c116101235780638da5cb5b116100ab578063b88d4fde1161006f578063b88d4fde146107be578063c87b56dd146107e7578063e8a3d48514610824578063e985e9c51461084f578063f2fde38b1461088c5761022f565b80638da5cb5b146106d95780639430ef5f1461070457806395d89b411461072d578063a22cb46514610758578063b4c635b2146107815761022f565b806370a08231116100f257806370a0823114610622578063715018a61461065f57806374175087146106765780637b32cb831461069257806383c4c00d146106ae5761022f565b806349df728c14610556578063530c90591461057f5780636352211e146105a857806364934975146105e55761022f565b806323b872dd116101b1578063379607f511610175578063379607f5146104c25780633ccfd60b146104de57806342842e0e146104f557806346ddea301461051e5780634854424e1461053a5761022f565b806323b872dd146103ec578063247b77c7146104155780632639f4601461045257806329c49bfe1461047b57806333039d3d146104975761022f565b806306fdde03116101f857806306fdde0314610316578063081812fc14610341578063095ea7b31461037e578063194e90af146103a75780631b309495146103d05761022f565b80620b46f81461023457806301e656b91461025f57806301ffc9a71461029c5780630221e785146102d95761022f565b3661022f57005b600080fd5b34801561024057600080fd5b506102496108b5565b6040516102569190614401565b60405180910390f35b34801561026b57600080fd5b5061028660048036038101906102819190613be5565b6108ba565b6040516102939190614401565b60405180910390f35b3480156102a857600080fd5b506102c360048036038101906102be9190613b29565b6108d2565b6040516102d09190614124565b60405180910390f35b3480156102e557600080fd5b5061030060048036038101906102fb9190613be5565b6109b4565b60405161030d919061413f565b60405180910390f35b34801561032257600080fd5b5061032b610a54565b604051610338919061413f565b60405180910390f35b34801561034d57600080fd5b5061036860048036038101906103639190613be5565b610ae6565b604051610375919061402d565b60405180910390f35b34801561038a57600080fd5b506103a560048036038101906103a0919061396a565b610b2c565b005b3480156103b357600080fd5b506103ce60048036038101906103c991906139a6565b610c44565b005b6103ea60048036038101906103e59190613c73565b610e1a565b005b3480156103f857600080fd5b50610413600480360381019061040e91906137fd565b611004565b005b34801561042157600080fd5b5061043c60048036038101906104379190613be5565b611064565b6040516104499190614124565b60405180910390f35b34801561045e57600080fd5b5061047960048036038101906104749190613ba4565b6110d0565b005b61049560048036038101906104909190613be5565b6110f2565b005b3480156104a357600080fd5b506104ac6112e3565b6040516104b99190614401565b60405180910390f35b6104dc60048036038101906104d79190613be5565b6112e9565b005b3480156104ea57600080fd5b506104f36114a9565b005b34801561050157600080fd5b5061051c600480360381019061051791906137fd565b611500565b005b61053860048036038101906105339190613903565b611520565b005b610554600480360381019061054f9190613c73565b611642565b005b34801561056257600080fd5b5061057d60048036038101906105789190613b7b565b6117b2565b005b34801561058b57600080fd5b506105a660048036038101906105a19190613782565b6118d9565b005b3480156105b457600080fd5b506105cf60048036038101906105ca9190613be5565b61198f565b6040516105dc919061402d565b60405180910390f35b3480156105f157600080fd5b5061060c60048036038101906106079190613c37565b611a41565b6040516106199190614124565b60405180910390f35b34801561062e57600080fd5b506106496004803603810190610644919061371d565b611a70565b6040516106569190614401565b60405180910390f35b34801561066b57600080fd5b50610674611b28565b005b610690600480360381019061068b9190613a69565b611b3c565b005b6106ac60048036038101906106a79190613be5565b611df9565b005b3480156106ba57600080fd5b506106c3611fbb565b6040516106d09190614401565b60405180910390f35b3480156106e557600080fd5b506106ee611fcc565b6040516106fb919061402d565b60405180910390f35b34801561071057600080fd5b5061072b60048036038101906107269190613c37565b611ff6565b005b34801561073957600080fd5b506107426120db565b60405161074f919061413f565b60405180910390f35b34801561076457600080fd5b5061077f600480360381019061077a91906138c7565b61216d565b005b34801561078d57600080fd5b506107a860048036038101906107a39190613be5565b612183565b6040516107b5919061402d565b60405180910390f35b3480156107ca57600080fd5b506107e560048036038101906107e0919061384c565b6121b6565b005b3480156107f357600080fd5b5061080e60048036038101906108099190613be5565b612218565b60405161081b919061413f565b60405180910390f35b34801561083057600080fd5b50610839612305565b604051610846919061413f565b60405180910390f35b34801561085b57600080fd5b5061087660048036038101906108719190613746565b612397565b6040516108839190614124565b60405180910390f35b34801561089857600080fd5b506108b360048036038101906108ae919061371d565b61242b565b005b600281565b600c6020528060005260406000206000915090505481565b60007f80ac58cd000000000000000000000000000000000000000000000000000000007bffffffffffffffffffffffffffffffffffffffffffffffffffffffff1916827bffffffffffffffffffffffffffffffffffffffffffffffffffffffff1916148061099d57507f5b5e139f000000000000000000000000000000000000000000000000000000007bffffffffffffffffffffffffffffffffffffffffffffffffffffffff1916827bffffffffffffffffffffffffffffffffffffffffffffffffffffffff1916145b806109ad57506109ac826124af565b5b9050919050565b600b60205280600052604060002060009150905080546109d390614765565b80601f01602080910402602001604051908101604052809291908181526020018280546109ff90614765565b8015610a4c5780601f10610a2157610100808354040283529160200191610a4c565b820191906000526020600020905b815481529060010190602001808311610a2f57829003601f168201915b505050505081565b606060008054610a6390614765565b80601f0160208091040260200160405190810160405280929190818152602001828054610a8f90614765565b8015610adc5780601f10610ab157610100808354040283529160200191610adc565b820191906000526020600020905b815481529060010190602001808311610abf57829003601f168201915b5050505050905090565b6000610af182612519565b6004600083815260200190815260200160002060009054906101000a900473ffffffffffffffffffffffffffffffffffffffff169050919050565b6000610b378261198f565b90508073ffffffffffffffffffffffffffffffffffffffff168373ffffffffffffffffffffffffffffffffffffffff161415610ba8576040517f08c379a0000000000000000000000000000000000000000000000000000000008152600401610b9f90614361565b60405180910390fd5b8073ffffffffffffffffffffffffffffffffffffffff16610bc7612564565b73ffffffffffffffffffffffffffffffffffffffff161480610bf65750610bf581610bf0612564565b612397565b5b610c35576040517f08c379a0000000000000000000000000000000000000000000000000000000008152600401610c2c906142e1565b60405180910390fd5b610c3f838361256c565b505050565b60026007541415610c8a576040517f08c379a0000000000000000000000000000000000000000000000000000000008152600401610c81906143c1565b60405180910390fd5b6002600781905550600a54610c9f6008612625565b1115610ce0576040517f08c379a0000000000000000000000000000000000000000000000000000000008152600401610cd790614261565b60405180910390fd5b60005b8351811015610e0b57610df8858281518110610d28577f4e487b7100000000000000000000000000000000000000000000000000000000600052603260045260246000fd5b6020026020010151858381518110610d69577f4e487b7100000000000000000000000000000000000000000000000000000000600052603260045260246000fd5b6020026020010151858481518110610daa577f4e487b7100000000000000000000000000000000000000000000000000000000600052603260045260246000fd5b6020026020010151858581518110610deb577f4e487b7100000000000000000000000000000000000000000000000000000000600052603260045260246000fd5b6020026020010151612633565b8080610e03906147c8565b915050610ce3565b50600160078190555050505050565b60026007541415610e60576040517f08c379a0000000000000000000000000000000000000000000000000000000008152600401610e57906143c1565b60405180910390fd5b6002600781905550818180600c6000848152602001908152602001600020541015610ec0576040517f08c379a0000000000000000000000000000000000000000000000000000000008152600401610eb7906142c1565b60405180910390fd5b6000600c60008681526020019081526020016000205490508381610ee49190614669565b600c600087815260200190815260200160002081905550600d600086815260200190815260200160002060009054906101000a900473ffffffffffffffffffffffffffffffffffffffff1673ffffffffffffffffffffffffffffffffffffffff1663a9059cbb33866040518363ffffffff1660e01b8152600401610f699291906140fb565b602060405180830381600087803b158015610f8357600080fd5b505af1158015610f97573d6000803e3d6000fd5b505050506040513d601f19601f82011682018060405250810190610fbb9190613b00565b507f662780d757190c3d2d7e9edffb771ec6caf1a540fdff183f86b9524c9c7b700c8585604051610fed92919061441c565b60405180910390a150505060016007819055505050565b61101561100f612564565b826127d4565b611054576040517f08c379a000000000000000000000000000000000000000000000000000000000815260040161104b906143a1565b60405180910390fd5b61105f838383612869565b505050565b60008073ffffffffffffffffffffffffffffffffffffffff16600d600084815260200190815260200160002060009054906101000a900473ffffffffffffffffffffffffffffffffffffffff1673ffffffffffffffffffffffffffffffffffffffff1614159050919050565b6110d8612ad0565b80600990805190602001906110ee929190613326565b5050565b60026007541415611138576040517f08c379a000000000000000000000000000000000000000000000000000000000815260040161112f906143c1565b60405180910390fd5b6002600781905550806000600c60008381526020019081526020016000205411611197576040517f08c379a000000000000000000000000000000000000000000000000000000000815260040161118e906142c1565b60405180910390fd5b816001600e600083815260200190815260200160002060003373ffffffffffffffffffffffffffffffffffffffff1673ffffffffffffffffffffffffffffffffffffffff16815260200190815260200160002060006101000a81548160ff021916908315150217905561123f576040517f08c379a000000000000000000000000000000000000000000000000000000000815260040161123690614381565b60405180910390fd5b6000600c60008581526020019081526020016000205490503373ffffffffffffffffffffffffffffffffffffffff166108fc829081150290604051600060405180830381858888f1935050505015801561129d573d6000803e3d6000fd5b507f7bb2b3c10797baccb6f8c4791f1edd6ca2f0d028ee0eda64b01a9a57e3a653f7846040516112cd9190614401565b60405180910390a1505050600160078190555050565b600a5481565b6002600754141561132f576040517f08c379a0000000000000000000000000000000000000000000000000000000008152600401611326906143c1565b60405180910390fd5b6002600781905550806000600c6000838152602001908152602001600020541161138e576040517f08c379a0000000000000000000000000000000000000000000000000000000008152600401611385906142c1565b60405180910390fd5b813373ffffffffffffffffffffffffffffffffffffffff166113af8261198f565b73ffffffffffffffffffffffffffffffffffffffff1614611405576040517f08c379a00000000000000000000000000000000000000000000000000000000081526004016113fc90614161565b60405180910390fd5b6000600c60008581526020019081526020016000205490503373ffffffffffffffffffffffffffffffffffffffff166108fc829081150290604051600060405180830381858888f19350505050158015611463573d6000803e3d6000fd5b507f7bb2b3c10797baccb6f8c4791f1edd6ca2f0d028ee0eda64b01a9a57e3a653f7846040516114939190614401565b60405180910390a1505050600160078190555050565b6114b1612ad0565b60004790503373ffffffffffffffffffffffffffffffffffffffff166108fc829081150290604051600060405180830381858888f193505050501580156114fc573d6000803e3d6000fd5b5050565b61151b838383604051806020016040528060008152506121b6565b505050565b60026007541415611566576040517f08c379a000000000000000000000000000000000000000000000000000000000815260040161155d906143c1565b60405180910390fd5b6002600781905550600a5461157b6008612625565b11156115bc576040517f08c379a00000000000000000000000000000000000000000000000000000000081526004016115b390614261565b60405180910390fd5b80600060026064836115ce91906145de565b6115d8919061460f565b905080826115e69190614588565b341015611628576040517f08c379a000000000000000000000000000000000000000000000000000000000815260040161161f906143e1565b60405180910390fd5b611633858585612b4e565b50506001600781905550505050565b60026007541415611688576040517f08c379a000000000000000000000000000000000000000000000000000000000815260040161167f906143c1565b60405180910390fd5b6002600781905550818180600c60008481526020019081526020016000205410156116e8576040517f08c379a00000000000000000000000000000000000000000000000000000000081526004016116df906142c1565b60405180910390fd5b6000600c6000868152602001908152602001600020549050838161170c9190614669565b600c6000878152602001908152602001600020819055503373ffffffffffffffffffffffffffffffffffffffff166108fc859081150290604051600060405180830381858888f19350505050158015611769573d6000803e3d6000fd5b507fe889a56d7b23cf4775156eb59692b6e530a1c9956cc701fe316218e591f0e52c858560405161179b92919061441c565b60405180910390a150505060016007819055505050565b6117ba612ad0565b60008173ffffffffffffffffffffffffffffffffffffffff166370a08231306040518263ffffffff1660e01b81526004016117f5919061402d565b60206040518083038186803b15801561180d57600080fd5b505afa158015611821573d6000803e3d6000fd5b505050506040513d601f19601f820116820180604052508101906118459190613c0e565b90508173ffffffffffffffffffffffffffffffffffffffff1663a9059cbb33836040518363ffffffff1660e01b81526004016118829291906140fb565b602060405180830381600087803b15801561189c57600080fd5b505af11580156118b0573d6000803e3d6000fd5b505050506040513d601f19601f820116820180604052508101906118d49190613b00565b505050565b6002600754141561191f576040517f08c379a0000000000000000000000000000000000000000000000000000000008152600401611916906143c1565b60405180910390fd5b6002600781905550600a546119346008612625565b1115611975576040517f08c379a000000000000000000000000000000000000000000000000000000000815260040161196c90614261565b60405180910390fd5b61198184848484612633565b600160078190555050505050565b6000806002600084815260200190815260200160002060009054906101000a900473ffffffffffffffffffffffffffffffffffffffff169050600073ffffffffffffffffffffffffffffffffffffffff168173ffffffffffffffffffffffffffffffffffffffff161415611a38576040517f08c379a0000000000000000000000000000000000000000000000000000000008152600401611a2f90614341565b60405180910390fd5b80915050919050565b600e6020528160005260406000206020528060005260406000206000915091509054906101000a900460ff1681565b60008073ffffffffffffffffffffffffffffffffffffffff168273ffffffffffffffffffffffffffffffffffffffff161415611ae1576040517f08c379a0000000000000000000000000000000000000000000000000000000008152600401611ad890614281565b60405180910390fd5b600360008373ffffffffffffffffffffffffffffffffffffffff1673ffffffffffffffffffffffffffffffffffffffff168152602001908152602001600020549050919050565b611b30612ad0565b611b3a6000612be3565b565b60026007541415611b82576040517f08c379a0000000000000000000000000000000000000000000000000000000008152600401611b79906143c1565b60405180910390fd5b6002600781905550600a54611b976008612625565b1115611bd8576040517f08c379a0000000000000000000000000000000000000000000000000000000008152600401611bcf90614261565b60405180910390fd5b8060008060005b8351811015611caf5760026064858381518110611c25577f4e487b7100000000000000000000000000000000000000000000000000000000600052603260045260246000fd5b6020026020010151611c3791906145de565b611c41919061460f565b82611c4c9190614588565b9150838181518110611c87577f4e487b7100000000000000000000000000000000000000000000000000000000600052603260045260246000fd5b602002602001015183611c9a9190614588565b92508080611ca7906147c8565b915050611bdf565b508082611cbc9190614588565b341015611cfe576040517f08c379a0000000000000000000000000000000000000000000000000000000008152600401611cf590614201565b60405180910390fd5b60005b8651811015611de857611dd5878281518110611d46577f4e487b7100000000000000000000000000000000000000000000000000000000600052603260045260246000fd5b6020026020010151878381518110611d87577f4e487b7100000000000000000000000000000000000000000000000000000000600052603260045260246000fd5b6020026020010151878481518110611dc8577f4e487b7100000000000000000000000000000000000000000000000000000000600052603260045260246000fd5b6020026020010151612b4e565b8080611de0906147c8565b915050611d01565b505050506001600781905550505050565b60026007541415611e3f576040517f08c379a0000000000000000000000000000000000000000000000000000000008152600401611e36906143c1565b60405180910390fd5b6002600781905550806000600c60008381526020019081526020016000205411611e9e576040517f08c379a0000000000000000000000000000000000000000000000000000000008152600401611e95906142c1565b60405180910390fd5b6000600c6000848152602001908152602001600020549050600d600084815260200190815260200160002060009054906101000a900473ffffffffffffffffffffffffffffffffffffffff1673ffffffffffffffffffffffffffffffffffffffff1663a9059cbb33836040518363ffffffff1660e01b8152600401611f249291906140fb565b602060405180830381600087803b158015611f3e57600080fd5b505af1158015611f52573d6000803e3d6000fd5b505050506040513d601f19601f82011682018060405250810190611f769190613b00565b507f86692c710ef84e4100b4df86a1512d2d8378fe67ca5885a53e1f075d9988313183604051611fa69190614401565b60405180910390a15050600160078190555050565b6000611fc76008612625565b905090565b6000600660009054906101000a900473ffffffffffffffffffffffffffffffffffffffff16905090565b813373ffffffffffffffffffffffffffffffffffffffff166120178261198f565b73ffffffffffffffffffffffffffffffffffffffff161461206d576040517f08c379a000000000000000000000000000000000000000000000000000000000815260040161206490614161565b60405180910390fd5b6001600e600085815260200190815260200160002060008473ffffffffffffffffffffffffffffffffffffffff1673ffffffffffffffffffffffffffffffffffffffff16815260200190815260200160002060006101000a81548160ff021916908315150217905550505050565b6060600180546120ea90614765565b80601f016020809104026020016040519081016040528092919081815260200182805461211690614765565b80156121635780601f1061213857610100808354040283529160200191612163565b820191906000526020600020905b81548152906001019060200180831161214657829003601f168201915b5050505050905090565b61217f612178612564565b8383612ca9565b5050565b600d6020528060005260406000206000915054906101000a900473ffffffffffffffffffffffffffffffffffffffff1681565b6121c76121c1612564565b836127d4565b612206576040517f08c379a00000000000000000000000000000000000000000000000000000000081526004016121fd906143a1565b60405180910390fd5b61221284848484612e16565b50505050565b606061222382612e72565b612262576040517f08c379a0000000000000000000000000000000000000000000000000000000008152600401612259906142a1565b60405180910390fd5b600b6000838152602001908152602001600020805461228090614765565b80601f01602080910402602001604051908101604052809291908181526020018280546122ac90614765565b80156122f95780601f106122ce576101008083540402835291602001916122f9565b820191906000526020600020905b8154815290600101906020018083116122dc57829003601f168201915b50505050509050919050565b60606009805461231490614765565b80601f016020809104026020016040519081016040528092919081815260200182805461234090614765565b801561238d5780601f106123625761010080835404028352916020019161238d565b820191906000526020600020905b81548152906001019060200180831161237057829003601f168201915b5050505050905090565b6000600560008473ffffffffffffffffffffffffffffffffffffffff1673ffffffffffffffffffffffffffffffffffffffff16815260200190815260200160002060008373ffffffffffffffffffffffffffffffffffffffff1673ffffffffffffffffffffffffffffffffffffffff16815260200190815260200160002060009054906101000a900460ff16905092915050565b612433612ad0565b600073ffffffffffffffffffffffffffffffffffffffff168173ffffffffffffffffffffffffffffffffffffffff1614156124a3576040517f08c379a000000000000000000000000000000000000000000000000000000000815260040161249a906141a1565b60405180910390fd5b6124ac81612be3565b50565b60007f01ffc9a7000000000000000000000000000000000000000000000000000000007bffffffffffffffffffffffffffffffffffffffffffffffffffffffff1916827bffffffffffffffffffffffffffffffffffffffffffffffffffffffff1916149050919050565b61252281612e72565b612561576040517f08c379a000000000000000000000000000000000000000000000000000000000815260040161255890614341565b60405180910390fd5b50565b600033905090565b816004600083815260200190815260200160002060006101000a81548173ffffffffffffffffffffffffffffffffffffffff021916908373ffffffffffffffffffffffffffffffffffffffff160217905550808273ffffffffffffffffffffffffffffffffffffffff166125df8361198f565b73ffffffffffffffffffffffffffffffffffffffff167f8c5be1e5ebec7d5bd14f71427d1e84f3dd0314c0f7b2291e5b200ac8c7c3b92560405160405180910390a45050565b600081600001549050919050565b600061263d612ede565b90506000600260648461265091906145de565b61265a919061460f565b905083600b60008481526020019081526020016000209080519060200190612683929190613326565b5085600d600084815260200190815260200160002060006101000a81548173ffffffffffffffffffffffffffffffffffffffff021916908373ffffffffffffffffffffffffffffffffffffffff16021790555080836126e29190614669565b600c6000848152602001908152602001600020819055508573ffffffffffffffffffffffffffffffffffffffff166323b872dd3330866040518463ffffffff1660e01b815260040161273693929190614048565b602060405180830381600087803b15801561275057600080fd5b505af1158015612764573d6000803e3d6000fd5b505050506040513d601f19601f820116820180604052508101906127889190613b00565b506127938583612ef9565b7f6e4ab8d601088e78a2856e22b7b93c4059a3d00ed5fc14a12a68a43016a2886585856040516127c49291906140cb565b60405180910390a1505050505050565b6000806127e08361198f565b90508073ffffffffffffffffffffffffffffffffffffffff168473ffffffffffffffffffffffffffffffffffffffff16148061282257506128218185612397565b5b8061286057508373ffffffffffffffffffffffffffffffffffffffff1661284884610ae6565b73ffffffffffffffffffffffffffffffffffffffff16145b91505092915050565b8273ffffffffffffffffffffffffffffffffffffffff166128898261198f565b73ffffffffffffffffffffffffffffffffffffffff16146128df576040517f08c379a00000000000000000000000000000000000000000000000000000000081526004016128d6906141c1565b60405180910390fd5b600073ffffffffffffffffffffffffffffffffffffffff168273ffffffffffffffffffffffffffffffffffffffff16141561294f576040517f08c379a000000000000000000000000000000000000000000000000000000000815260040161294690614221565b60405180910390fd5b61295a838383612f17565b61296560008261256c565b6001600360008573ffffffffffffffffffffffffffffffffffffffff1673ffffffffffffffffffffffffffffffffffffffff16815260200190815260200160002060008282546129b59190614669565b925050819055506001600360008473ffffffffffffffffffffffffffffffffffffffff1673ffffffffffffffffffffffffffffffffffffffff1681526020019081526020016000206000828254612a0c9190614588565b92505081905550816002600083815260200190815260200160002060006101000a81548173ffffffffffffffffffffffffffffffffffffffff021916908373ffffffffffffffffffffffffffffffffffffffff160217905550808273ffffffffffffffffffffffffffffffffffffffff168473ffffffffffffffffffffffffffffffffffffffff167fddf252ad1be2c89b69c2b068fc378daa952ba7f163c4a11628f55a4df523b3ef60405160405180910390a4612acb838383612f1c565b505050565b612ad8612564565b73ffffffffffffffffffffffffffffffffffffffff16612af6611fcc565b73ffffffffffffffffffffffffffffffffffffffff1614612b4c576040517f08c379a0000000000000000000000000000000000000000000000000000000008152600401612b4390614321565b60405180910390fd5b565b6000612b58612ede565b905082600b60008381526020019081526020016000209080519060200190612b81929190613326565b5081600c600083815260200190815260200160002081905550612ba48482612ef9565b7f6e4ab8d601088e78a2856e22b7b93c4059a3d00ed5fc14a12a68a43016a288658484604051612bd59291906140cb565b60405180910390a150505050565b6000600660009054906101000a900473ffffffffffffffffffffffffffffffffffffffff16905081600660006101000a81548173ffffffffffffffffffffffffffffffffffffffff021916908373ffffffffffffffffffffffffffffffffffffffff1602179055508173ffffffffffffffffffffffffffffffffffffffff168173ffffffffffffffffffffffffffffffffffffffff167f8be0079c531659141344cd1fd0a4f28419497f9722a3daafe3b4186f6b6457e060405160405180910390a35050565b8173ffffffffffffffffffffffffffffffffffffffff168373ffffffffffffffffffffffffffffffffffffffff161415612d18576040517f08c379a0000000000000000000000000000000000000000000000000000000008152600401612d0f90614241565b60405180910390fd5b80600560008573ffffffffffffffffffffffffffffffffffffffff1673ffffffffffffffffffffffffffffffffffffffff16815260200190815260200160002060008473ffffffffffffffffffffffffffffffffffffffff1673ffffffffffffffffffffffffffffffffffffffff16815260200190815260200160002060006101000a81548160ff0219169083151502179055508173ffffffffffffffffffffffffffffffffffffffff168373ffffffffffffffffffffffffffffffffffffffff167f17307eab39ab6107e8899845ad3d59bd9653f200f220920489ca2b5937696c3183604051612e099190614124565b60405180910390a3505050565b612e21848484612869565b612e2d84848484612f21565b612e6c576040517f08c379a0000000000000000000000000000000000000000000000000000000008152600401612e6390614181565b60405180910390fd5b50505050565b60008073ffffffffffffffffffffffffffffffffffffffff166002600084815260200190815260200160002060009054906101000a900473ffffffffffffffffffffffffffffffffffffffff1673ffffffffffffffffffffffffffffffffffffffff1614159050919050565b6000612eea60086130b8565b612ef46008612625565b905090565b612f138282604051806020016040528060008152506130ce565b5050565b505050565b505050565b6000612f428473ffffffffffffffffffffffffffffffffffffffff16613129565b156130ab578373ffffffffffffffffffffffffffffffffffffffff1663150b7a02612f6b612564565b8786866040518563ffffffff1660e01b8152600401612f8d949392919061407f565b602060405180830381600087803b158015612fa757600080fd5b505af1925050508015612fd857506040513d601f19601f82011682018060405250810190612fd59190613b52565b60015b61305b573d8060008114613008576040519150601f19603f3d011682016040523d82523d6000602084013e61300d565b606091505b50600081511415613053576040517f08c379a000000000000000000000000000000000000000000000000000000000815260040161304a90614181565b60405180910390fd5b805181602001fd5b63150b7a0260e01b7bffffffffffffffffffffffffffffffffffffffffffffffffffffffff1916817bffffffffffffffffffffffffffffffffffffffffffffffffffffffff1916149150506130b0565b600190505b949350505050565b6001816000016000828254019250508190555050565b6130d8838361314c565b6130e56000848484612f21565b613124576040517f08c379a000000000000000000000000000000000000000000000000000000000815260040161311b90614181565b60405180910390fd5b505050565b6000808273ffffffffffffffffffffffffffffffffffffffff163b119050919050565b600073ffffffffffffffffffffffffffffffffffffffff168273ffffffffffffffffffffffffffffffffffffffff1614156131bc576040517f08c379a00000000000000000000000000000000000000000000000000000000081526004016131b390614301565b60405180910390fd5b6131c581612e72565b15613205576040517f08c379a00000000000000000000000000000000000000000000000000000000081526004016131fc906141e1565b60405180910390fd5b61321160008383612f17565b6001600360008473ffffffffffffffffffffffffffffffffffffffff1673ffffffffffffffffffffffffffffffffffffffff16815260200190815260200160002060008282546132619190614588565b92505081905550816002600083815260200190815260200160002060006101000a81548173ffffffffffffffffffffffffffffffffffffffff021916908373ffffffffffffffffffffffffffffffffffffffff160217905550808273ffffffffffffffffffffffffffffffffffffffff16600073ffffffffffffffffffffffffffffffffffffffff167fddf252ad1be2c89b69c2b068fc378daa952ba7f163c4a11628f55a4df523b3ef60405160405180910390a461332260008383612f1c565b5050565b82805461333290614765565b90600052602060002090601f016020900481019282613354576000855561339b565b82601f1061336d57805160ff191683800117855561339b565b8280016001018555821561339b579182015b8281111561339a57825182559160200191906001019061337f565b5b5090506133a891906133ac565b5090565b5b808211156133c55760008160009055506001016133ad565b5090565b60006133dc6133d78461446a565b614445565b905080838252602082019050828560208602820111156133fb57600080fd5b60005b8581101561342b578161341188826135a3565b8452602084019350602083019250506001810190506133fe565b5050509392505050565b600061344861344384614496565b614445565b9050808382526020820190508285602086028201111561346757600080fd5b60005b858110156134b157813567ffffffffffffffff81111561348957600080fd5b80860161349689826136c9565b8552602085019450602084019350505060018101905061346a565b5050509392505050565b60006134ce6134c9846144c2565b614445565b905080838252602082019050828560208602820111156134ed57600080fd5b60005b8581101561351d578161350388826136f3565b8452602084019350602083019250506001810190506134f0565b5050509392505050565b600061353a613535846144ee565b614445565b90508281526020810184848401111561355257600080fd5b61355d848285614723565b509392505050565b60006135786135738461451f565b614445565b90508281526020810184848401111561359057600080fd5b61359b848285614723565b509392505050565b6000813590506135b281614d91565b92915050565b600082601f8301126135c957600080fd5b81356135d98482602086016133c9565b91505092915050565b600082601f8301126135f357600080fd5b8135613603848260208601613435565b91505092915050565b600082601f83011261361d57600080fd5b813561362d8482602086016134bb565b91505092915050565b60008135905061364581614da8565b92915050565b60008151905061365a81614da8565b92915050565b60008135905061366f81614dbf565b92915050565b60008151905061368481614dbf565b92915050565b600082601f83011261369b57600080fd5b81356136ab848260208601613527565b91505092915050565b6000813590506136c381614dd6565b92915050565b600082601f8301126136da57600080fd5b81356136ea848260208601613565565b91505092915050565b60008135905061370281614ded565b92915050565b60008151905061371781614ded565b92915050565b60006020828403121561372f57600080fd5b600061373d848285016135a3565b91505092915050565b6000806040838503121561375957600080fd5b6000613767858286016135a3565b9250506020613778858286016135a3565b9150509250929050565b6000806000806080858703121561379857600080fd5b60006137a6878288016135a3565b94505060206137b7878288016135a3565b935050604085013567ffffffffffffffff8111156137d457600080fd5b6137e0878288016136c9565b92505060606137f1878288016136f3565b91505092959194509250565b60008060006060848603121561381257600080fd5b6000613820868287016135a3565b9350506020613831868287016135a3565b9250506040613842868287016136f3565b9150509250925092565b6000806000806080858703121561386257600080fd5b6000613870878288016135a3565b9450506020613881878288016135a3565b9350506040613892878288016136f3565b925050606085013567ffffffffffffffff8111156138af57600080fd5b6138bb8782880161368a565b91505092959194509250565b600080604083850312156138da57600080fd5b60006138e8858286016135a3565b92505060206138f985828601613636565b9150509250929050565b60008060006060848603121561391857600080fd5b6000613926868287016135a3565b935050602084013567ffffffffffffffff81111561394357600080fd5b61394f868287016136c9565b9250506040613960868287016136f3565b9150509250925092565b6000806040838503121561397d57600080fd5b600061398b858286016135a3565b925050602061399c858286016136f3565b9150509250929050565b600080600080608085870312156139bc57600080fd5b600085013567ffffffffffffffff8111156139d657600080fd5b6139e2878288016135b8565b945050602085013567ffffffffffffffff8111156139ff57600080fd5b613a0b878288016135b8565b935050604085013567ffffffffffffffff811115613a2857600080fd5b613a34878288016135e2565b925050606085013567ffffffffffffffff811115613a5157600080fd5b613a5d8782880161360c565b91505092959194509250565b600080600060608486031215613a7e57600080fd5b600084013567ffffffffffffffff811115613a9857600080fd5b613aa4868287016135b8565b935050602084013567ffffffffffffffff811115613ac157600080fd5b613acd868287016135e2565b925050604084013567ffffffffffffffff811115613aea57600080fd5b613af68682870161360c565b9150509250925092565b600060208284031215613b1257600080fd5b6000613b208482850161364b565b91505092915050565b600060208284031215613b3b57600080fd5b6000613b4984828501613660565b91505092915050565b600060208284031215613b6457600080fd5b6000613b7284828501613675565b91505092915050565b600060208284031215613b8d57600080fd5b6000613b9b848285016136b4565b91505092915050565b600060208284031215613bb657600080fd5b600082013567ffffffffffffffff811115613bd057600080fd5b613bdc848285016136c9565b91505092915050565b600060208284031215613bf757600080fd5b6000613c05848285016136f3565b91505092915050565b600060208284031215613c2057600080fd5b6000613c2e84828501613708565b91505092915050565b60008060408385031215613c4a57600080fd5b6000613c58858286016136f3565b9250506020613c69858286016135a3565b9150509250929050565b60008060408385031215613c8657600080fd5b6000613c94858286016136f3565b9250506020613ca5858286016136f3565b9150509250929050565b613cb88161469d565b82525050565b613cc7816146af565b82525050565b6000613cd882614550565b613ce28185614566565b9350613cf2818560208601614732565b613cfb816148cd565b840191505092915050565b6000613d118261455b565b613d1b8185614577565b9350613d2b818560208601614732565b613d34816148cd565b840191505092915050565b6000613d4c602583614577565b9150613d57826148de565b604082019050919050565b6000613d6f603283614577565b9150613d7a8261492d565b604082019050919050565b6000613d92602683614577565b9150613d9d8261497c565b604082019050919050565b6000613db5602583614577565b9150613dc0826149cb565b604082019050919050565b6000613dd8601c83614577565b9150613de382614a1a565b602082019050919050565b6000613dfb601f83614577565b9150613e0682614a43565b602082019050919050565b6000613e1e602483614577565b9150613e2982614a6c565b604082019050919050565b6000613e41601983614577565b9150613e4c82614abb565b602082019050919050565b6000613e64601d83614577565b9150613e6f82614ae4565b602082019050919050565b6000613e87602983614577565b9150613e9282614b0d565b604082019050919050565b6000613eaa601283614577565b9150613eb582614b5c565b602082019050919050565b6000613ecd601c83614577565b9150613ed882614b85565b602082019050919050565b6000613ef0603e83614577565b9150613efb82614bae565b604082019050919050565b6000613f13602083614577565b9150613f1e82614bfd565b602082019050919050565b6000613f36602083614577565b9150613f4182614c26565b602082019050919050565b6000613f59601883614577565b9150613f6482614c4f565b602082019050919050565b6000613f7c602183614577565b9150613f8782614c78565b604082019050919050565b6000613f9f601b83614577565b9150613faa82614cc7565b602082019050919050565b6000613fc2602e83614577565b9150613fcd82614cf0565b604082019050919050565b6000613fe5601f83614577565b9150613ff082614d3f565b602082019050919050565b6000614008601d83614577565b915061401382614d68565b602082019050919050565b61402781614719565b82525050565b60006020820190506140426000830184613caf565b92915050565b600060608201905061405d6000830186613caf565b61406a6020830185613caf565b614077604083018461401e565b949350505050565b60006080820190506140946000830187613caf565b6140a16020830186613caf565b6140ae604083018561401e565b81810360608301526140c08184613ccd565b905095945050505050565b60006040820190506140e06000830185613caf565b81810360208301526140f28184613d06565b90509392505050565b60006040820190506141106000830185613caf565b61411d602083018461401e565b9392505050565b60006020820190506141396000830184613cbe565b92915050565b600060208201905081810360008301526141598184613d06565b905092915050565b6000602082019050818103600083015261417a81613d3f565b9050919050565b6000602082019050818103600083015261419a81613d62565b9050919050565b600060208201905081810360008301526141ba81613d85565b9050919050565b600060208201905081810360008301526141da81613da8565b9050919050565b600060208201905081810360008301526141fa81613dcb565b9050919050565b6000602082019050818103600083015261421a81613dee565b9050919050565b6000602082019050818103600083015261423a81613e11565b9050919050565b6000602082019050818103600083015261425a81613e34565b9050919050565b6000602082019050818103600083015261427a81613e57565b9050919050565b6000602082019050818103600083015261429a81613e7a565b9050919050565b600060208201905081810360008301526142ba81613e9d565b9050919050565b600060208201905081810360008301526142da81613ec0565b9050919050565b600060208201905081810360008301526142fa81613ee3565b9050919050565b6000602082019050818103600083015261431a81613f06565b9050919050565b6000602082019050818103600083015261433a81613f29565b9050919050565b6000602082019050818103600083015261435a81613f4c565b9050919050565b6000602082019050818103600083015261437a81613f6f565b9050919050565b6000602082019050818103600083015261439a81613f92565b9050919050565b600060208201905081810360008301526143ba81613fb5565b9050919050565b600060208201905081810360008301526143da81613fd8565b9050919050565b600060208201905081810360008301526143fa81613ffb565b9050919050565b6000602082019050614416600083018461401e565b92915050565b6000604082019050614431600083018561401e565b61443e602083018461401e565b9392505050565b600061444f614460565b905061445b8282614797565b919050565b6000604051905090565b600067ffffffffffffffff8211156144855761448461489e565b5b602082029050602081019050919050565b600067ffffffffffffffff8211156144b1576144b061489e565b5b602082029050602081019050919050565b600067ffffffffffffffff8211156144dd576144dc61489e565b5b602082029050602081019050919050565b600067ffffffffffffffff8211156145095761450861489e565b5b614512826148cd565b9050602081019050919050565b600067ffffffffffffffff82111561453a5761453961489e565b5b614543826148cd565b9050602081019050919050565b600081519050919050565b600081519050919050565b600082825260208201905092915050565b600082825260208201905092915050565b600061459382614719565b915061459e83614719565b9250827fffffffffffffffffffffffffffffffffffffffffffffffffffffffffffffffff038211156145d3576145d2614811565b5b828201905092915050565b60006145e982614719565b91506145f483614719565b92508261460457614603614840565b5b828204905092915050565b600061461a82614719565b915061462583614719565b9250817fffffffffffffffffffffffffffffffffffffffffffffffffffffffffffffffff048311821515161561465e5761465d614811565b5b828202905092915050565b600061467482614719565b915061467f83614719565b92508282101561469257614691614811565b5b828203905092915050565b60006146a8826146f9565b9050919050565b60008115159050919050565b60007fffffffff0000000000000000000000000000000000000000000000000000000082169050919050565b60006146f28261469d565b9050919050565b600073ffffffffffffffffffffffffffffffffffffffff82169050919050565b6000819050919050565b82818337600083830152505050565b60005b83811015614750578082015181840152602081019050614735565b8381111561475f576000848401525b50505050565b6000600282049050600182168061477d57607f821691505b602082108114156147915761479061486f565b5b50919050565b6147a0826148cd565b810181811067ffffffffffffffff821117156147bf576147be61489e565b5b80604052505050565b60006147d382614719565b91507fffffffffffffffffffffffffffffffffffffffffffffffffffffffffffffffff82141561480657614805614811565b5b600182019050919050565b7f4e487b7100000000000000000000000000000000000000000000000000000000600052601160045260246000fd5b7f4e487b7100000000000000000000000000000000000000000000000000000000600052601260045260246000fd5b7f4e487b7100000000000000000000000000000000000000000000000000000000600052602260045260246000fd5b7f4e487b7100000000000000000000000000000000000000000000000000000000600052604160045260246000fd5b6000601f19601f8301169050919050565b7f4f6e6c7920746865206f776e65722063616e2063616c6c20746869732066756e60008201527f6374696f6e000000000000000000000000000000000000000000000000000000602082015250565b7f4552433732313a207472616e7366657220746f206e6f6e20455243373231526560008201527f63656976657220696d706c656d656e7465720000000000000000000000000000602082015250565b7f4f776e61626c653a206e6577206f776e657220697320746865207a65726f206160008201527f6464726573730000000000000000000000000000000000000000000000000000602082015250565b7f4552433732313a207472616e736665722066726f6d20696e636f72726563742060008201527f6f776e6572000000000000000000000000000000000000000000000000000000602082015250565b7f4552433732313a20746f6b656e20616c7265616479206d696e74656400000000600082015250565b7f496e73756666696369656e74206261746368207061796d656e742073656e7400600082015250565b7f4552433732313a207472616e7366657220746f20746865207a65726f2061646460008201527f7265737300000000000000000000000000000000000000000000000000000000602082015250565b7f4552433732313a20617070726f766520746f2063616c6c657200000000000000600082015250565b7f496e73756666696369656e7420746f6b656e732072656d61696e696e67000000600082015250565b7f4552433732313a2061646472657373207a65726f206973206e6f74206120766160008201527f6c6964206f776e65720000000000000000000000000000000000000000000000602082015250565b7f4e6f6e2d6578697374656e7420746f6b656e0000000000000000000000000000600082015250565b7f496e73756666696369656e742062616c616e6365206f6e206361726400000000600082015250565b7f4552433732313a20617070726f76652063616c6c6572206973206e6f7420746f60008201527f6b656e206f776e6572206e6f7220617070726f76656420666f7220616c6c0000602082015250565b7f4552433732313a206d696e7420746f20746865207a65726f2061646472657373600082015250565b7f4f776e61626c653a2063616c6c6572206973206e6f7420746865206f776e6572600082015250565b7f4552433732313a20696e76616c696420746f6b656e2049440000000000000000600082015250565b7f4552433732313a20617070726f76616c20746f2063757272656e74206f776e6560008201527f7200000000000000000000000000000000000000000000000000000000000000602082015250565b7f4f6e6c792074686520636c61696d6572732063616e20636c61696d0000000000600082015250565b7f4552433732313a2063616c6c6572206973206e6f7420746f6b656e206f776e6560008201527f72206e6f7220617070726f766564000000000000000000000000000000000000602082015250565b7f5265656e7472616e637947756172643a207265656e7472616e742063616c6c00600082015250565b7f56616c75652073656e74206d75737420696e636c756465206120666565000000600082015250565b614d9a8161469d565b8114614da557600080fd5b50565b614db1816146af565b8114614dbc57600080fd5b50565b614dc8816146bb565b8114614dd357600080fd5b50565b614ddf816146e7565b8114614dea57600080fd5b50565b614df681614719565b8114614e0157600080fd5b5056fea2646970667358221220528da4843fea1099149a2fa0923983fdf4d01fee1ddb157870fd2ac2adddcd7d64736f6c63430008040033",
  "linkReferences": {},
  "deployedLinkReferences": {}
}